{
  "_format": "hh-sol-artifact-1",
  "contractName": "ETHDaddy",
  "sourceName": "contracts/ETHDaddy.sol",
  "abi": [
    {
      "inputs": [
        {
          "internalType": "string",
          "name": "_name",
          "type": "string"
        },
        {
          "internalType": "string",
          "name": "_symbol",
          "type": "string"
        }
      ],
      "stateMutability": "nonpayable",
      "type": "constructor"
    },
    {
      "anonymous": false,
      "inputs": [
        {
          "indexed": true,
          "internalType": "address",
          "name": "owner",
          "type": "address"
        },
        {
          "indexed": true,
          "internalType": "address",
          "name": "approved",
          "type": "address"
        },
        {
          "indexed": true,
          "internalType": "uint256",
          "name": "tokenId",
          "type": "uint256"
        }
      ],
      "name": "Approval",
      "type": "event"
    },
    {
      "anonymous": false,
      "inputs": [
        {
          "indexed": true,
          "internalType": "address",
          "name": "owner",
          "type": "address"
        },
        {
          "indexed": true,
          "internalType": "address",
          "name": "operator",
          "type": "address"
        },
        {
          "indexed": false,
          "internalType": "bool",
          "name": "approved",
          "type": "bool"
        }
      ],
      "name": "ApprovalForAll",
      "type": "event"
    },
    {
      "anonymous": false,
      "inputs": [
        {
          "indexed": true,
          "internalType": "address",
          "name": "from",
          "type": "address"
        },
        {
          "indexed": true,
          "internalType": "address",
          "name": "to",
          "type": "address"
        },
        {
          "indexed": true,
          "internalType": "uint256",
          "name": "tokenId",
          "type": "uint256"
        }
      ],
      "name": "Transfer",
      "type": "event"
    },
    {
      "inputs": [
        {
          "internalType": "address",
          "name": "to",
          "type": "address"
        },
        {
          "internalType": "uint256",
          "name": "tokenId",
          "type": "uint256"
        }
      ],
      "name": "approve",
      "outputs": [],
      "stateMutability": "nonpayable",
      "type": "function"
    },
    {
      "inputs": [
        {
          "internalType": "address",
          "name": "owner",
          "type": "address"
        }
      ],
      "name": "balanceOf",
      "outputs": [
        {
          "internalType": "uint256",
          "name": "",
          "type": "uint256"
        }
      ],
      "stateMutability": "view",
      "type": "function"
    },
    {
      "inputs": [
        {
          "internalType": "uint256",
          "name": "tokenId",
          "type": "uint256"
        }
      ],
      "name": "getApproved",
      "outputs": [
        {
          "internalType": "address",
          "name": "",
          "type": "address"
        }
      ],
      "stateMutability": "view",
      "type": "function"
    },
    {
      "inputs": [],
      "name": "getBalance",
      "outputs": [
        {
          "internalType": "uint256",
          "name": "",
          "type": "uint256"
        }
      ],
      "stateMutability": "view",
      "type": "function"
    },
    {
      "inputs": [
        {
          "internalType": "uint256",
          "name": "_id",
          "type": "uint256"
        }
      ],
      "name": "getDomain",
      "outputs": [
        {
          "components": [
            {
              "internalType": "string",
              "name": "name",
              "type": "string"
            },
            {
              "internalType": "uint256",
              "name": "cost",
              "type": "uint256"
            },
            {
              "internalType": "bool",
              "name": "isOwned",
              "type": "bool"
            }
          ],
          "internalType": "struct ETHDaddy.Domain",
          "name": "",
          "type": "tuple"
        }
      ],
      "stateMutability": "view",
      "type": "function"
    },
    {
      "inputs": [
        {
          "internalType": "address",
          "name": "owner",
          "type": "address"
        },
        {
          "internalType": "address",
          "name": "operator",
          "type": "address"
        }
      ],
      "name": "isApprovedForAll",
      "outputs": [
        {
          "internalType": "bool",
          "name": "",
          "type": "bool"
        }
      ],
      "stateMutability": "view",
      "type": "function"
    },
    {
      "inputs": [
        {
          "internalType": "string",
          "name": "_name",
          "type": "string"
        },
        {
          "internalType": "uint256",
          "name": "_cost",
          "type": "uint256"
        }
      ],
      "name": "list",
      "outputs": [],
      "stateMutability": "nonpayable",
      "type": "function"
    },
    {
      "inputs": [],
      "name": "maxSupply",
      "outputs": [
        {
          "internalType": "uint256",
          "name": "",
          "type": "uint256"
        }
      ],
      "stateMutability": "view",
      "type": "function"
    },
    {
      "inputs": [
        {
          "internalType": "uint256",
          "name": "_id",
          "type": "uint256"
        }
      ],
      "name": "mint",
      "outputs": [],
      "stateMutability": "payable",
      "type": "function"
    },
    {
      "inputs": [],
      "name": "name",
      "outputs": [
        {
          "internalType": "string",
          "name": "",
          "type": "string"
        }
      ],
      "stateMutability": "view",
      "type": "function"
    },
    {
      "inputs": [],
      "name": "owner",
      "outputs": [
        {
          "internalType": "address",
          "name": "",
          "type": "address"
        }
      ],
      "stateMutability": "view",
      "type": "function"
    },
    {
      "inputs": [
        {
          "internalType": "uint256",
          "name": "tokenId",
          "type": "uint256"
        }
      ],
      "name": "ownerOf",
      "outputs": [
        {
          "internalType": "address",
          "name": "",
          "type": "address"
        }
      ],
      "stateMutability": "view",
      "type": "function"
    },
    {
      "inputs": [
        {
          "internalType": "address",
          "name": "from",
          "type": "address"
        },
        {
          "internalType": "address",
          "name": "to",
          "type": "address"
        },
        {
          "internalType": "uint256",
          "name": "tokenId",
          "type": "uint256"
        }
      ],
      "name": "safeTransferFrom",
      "outputs": [],
      "stateMutability": "nonpayable",
      "type": "function"
    },
    {
      "inputs": [
        {
          "internalType": "address",
          "name": "from",
          "type": "address"
        },
        {
          "internalType": "address",
          "name": "to",
          "type": "address"
        },
        {
          "internalType": "uint256",
          "name": "tokenId",
          "type": "uint256"
        },
        {
          "internalType": "bytes",
          "name": "data",
          "type": "bytes"
        }
      ],
      "name": "safeTransferFrom",
      "outputs": [],
      "stateMutability": "nonpayable",
      "type": "function"
    },
    {
      "inputs": [
        {
          "internalType": "address",
          "name": "operator",
          "type": "address"
        },
        {
          "internalType": "bool",
          "name": "approved",
          "type": "bool"
        }
      ],
      "name": "setApprovalForAll",
      "outputs": [],
      "stateMutability": "nonpayable",
      "type": "function"
    },
    {
      "inputs": [
        {
          "internalType": "bytes4",
          "name": "interfaceId",
          "type": "bytes4"
        }
      ],
      "name": "supportsInterface",
      "outputs": [
        {
          "internalType": "bool",
          "name": "",
          "type": "bool"
        }
      ],
      "stateMutability": "view",
      "type": "function"
    },
    {
      "inputs": [],
      "name": "symbol",
      "outputs": [
        {
          "internalType": "string",
          "name": "",
          "type": "string"
        }
      ],
      "stateMutability": "view",
      "type": "function"
    },
    {
      "inputs": [
        {
          "internalType": "uint256",
          "name": "tokenId",
          "type": "uint256"
        }
      ],
      "name": "tokenURI",
      "outputs": [
        {
          "internalType": "string",
          "name": "",
          "type": "string"
        }
      ],
      "stateMutability": "view",
      "type": "function"
    },
    {
      "inputs": [],
      "name": "totalSupply",
      "outputs": [
        {
          "internalType": "uint256",
          "name": "",
          "type": "uint256"
        }
      ],
      "stateMutability": "view",
      "type": "function"
    },
    {
      "inputs": [
        {
          "internalType": "address",
          "name": "from",
          "type": "address"
        },
        {
          "internalType": "address",
          "name": "to",
          "type": "address"
        },
        {
          "internalType": "uint256",
          "name": "tokenId",
          "type": "uint256"
        }
      ],
      "name": "transferFrom",
      "outputs": [],
      "stateMutability": "nonpayable",
      "type": "function"
    },
    {
      "inputs": [],
      "name": "withdraw",
      "outputs": [],
      "stateMutability": "nonpayable",
      "type": "function"
    }
  ],
  "bytecode": "0x60806040523480156200001157600080fd5b50604051620037b6380380620037b683398181016040528101906200003791906200023b565b818181600090816200004a91906200050b565b5080600190816200005c91906200050b565b50505033600860006101000a81548173ffffffffffffffffffffffffffffffffffffffff021916908373ffffffffffffffffffffffffffffffffffffffff1602179055505050620005f2565b6000604051905090565b600080fd5b600080fd5b600080fd5b600080fd5b6000601f19601f8301169050919050565b7f4e487b7100000000000000000000000000000000000000000000000000000000600052604160045260246000fd5b6200011182620000c6565b810181811067ffffffffffffffff82111715620001335762000132620000d7565b5b80604052505050565b600062000148620000a8565b905062000156828262000106565b919050565b600067ffffffffffffffff821115620001795762000178620000d7565b5b6200018482620000c6565b9050602081019050919050565b60005b83811015620001b157808201518184015260208101905062000194565b60008484015250505050565b6000620001d4620001ce846200015b565b6200013c565b905082815260208101848484011115620001f357620001f2620000c1565b5b6200020084828562000191565b509392505050565b600082601f83011262000220576200021f620000bc565b5b815162000232848260208601620001bd565b91505092915050565b60008060408385031215620002555762000254620000b2565b5b600083015167ffffffffffffffff811115620002765762000275620000b7565b5b620002848582860162000208565b925050602083015167ffffffffffffffff811115620002a857620002a7620000b7565b5b620002b68582860162000208565b9150509250929050565b600081519050919050565b7f4e487b7100000000000000000000000000000000000000000000000000000000600052602260045260246000fd5b600060028204905060018216806200031357607f821691505b602082108103620003295762000328620002cb565b5b50919050565b60008190508160005260206000209050919050565b60006020601f8301049050919050565b600082821b905092915050565b600060088302620003937fffffffffffffffffffffffffffffffffffffffffffffffffffffffffffffffff8262000354565b6200039f868362000354565b95508019841693508086168417925050509392505050565b6000819050919050565b6000819050919050565b6000620003ec620003e6620003e084620003b7565b620003c1565b620003b7565b9050919050565b6000819050919050565b6200040883620003cb565b620004206200041782620003f3565b84845462000361565b825550505050565b600090565b6200043762000428565b62000444818484620003fd565b505050565b5b818110156200046c57620004606000826200042d565b6001810190506200044a565b5050565b601f821115620004bb5762000485816200032f565b620004908462000344565b81016020851015620004a0578190505b620004b8620004af8562000344565b83018262000449565b50505b505050565b600082821c905092915050565b6000620004e060001984600802620004c0565b1980831691505092915050565b6000620004fb8383620004cd565b9150826002028217905092915050565b6200051682620002c0565b67ffffffffffffffff811115620005325762000531620000d7565b5b6200053e8254620002fa565b6200054b82828562000470565b600060209050601f8311600181146200058357600084156200056e578287015190505b6200057a8582620004ed565b865550620005ea565b601f19841662000593866200032f565b60005b82811015620005bd5784890151825560018201915060208501945060208101905062000596565b86831015620005dd5784890151620005d9601f891682620004cd565b8355505b6001600288020188555050505b505050505050565b6131b480620006026000396000f3fe60806040526004361061012a5760003560e01c80634a878dfa116100ab578063a0712d681161006f578063a0712d68146103f2578063a22cb4651461040e578063b88d4fde14610437578063c87b56dd14610460578063d5abeb011461049d578063e985e9c5146104c85761012a565b80634a878dfa146102f95780636352211e1461032257806370a082311461035f5780638da5cb5b1461039c57806395d89b41146103c75761012a565b806318160ddd116100f257806318160ddd146102285780631a7a98e21461025357806323b872dd146102905780633ccfd60b146102b957806342842e0e146102d05761012a565b806301ffc9a71461012f57806306fdde031461016c578063081812fc14610197578063095ea7b3146101d457806312065fe0146101fd575b600080fd5b34801561013b57600080fd5b5061015660048036038101906101519190611f36565b610505565b6040516101639190611f7e565b60405180910390f35b34801561017857600080fd5b506101816105e7565b60405161018e9190612029565b60405180910390f35b3480156101a357600080fd5b506101be60048036038101906101b99190612081565b610679565b6040516101cb91906120ef565b60405180910390f35b3480156101e057600080fd5b506101fb60048036038101906101f69190612136565b6106bf565b005b34801561020957600080fd5b506102126107d6565b60405161021f9190612185565b60405180910390f35b34801561023457600080fd5b5061023d6107de565b60405161024a9190612185565b60405180910390f35b34801561025f57600080fd5b5061027a60048036038101906102759190612081565b6107e4565b6040516102879190612258565b60405180910390f35b34801561029c57600080fd5b506102b760048036038101906102b2919061227a565b6108c8565b005b3480156102c557600080fd5b506102ce610928565b005b3480156102dc57600080fd5b506102f760048036038101906102f2919061227a565b610a1d565b005b34801561030557600080fd5b50610320600480360381019061031b9190612402565b610a3d565b005b34801561032e57600080fd5b5061034960048036038101906103449190612081565b610b83565b60405161035691906120ef565b60405180910390f35b34801561036b57600080fd5b506103866004803603810190610381919061245e565b610c09565b6040516103939190612185565b60405180910390f35b3480156103a857600080fd5b506103b1610cc0565b6040516103be91906120ef565b60405180910390f35b3480156103d357600080fd5b506103dc610ce6565b6040516103e99190612029565b60405180910390f35b61040c60048036038101906104079190612081565b610d78565b005b34801561041a57600080fd5b50610435600480360381019061043091906124b7565b610e3f565b005b34801561044357600080fd5b5061045e60048036038101906104599190612598565b610e55565b005b34801561046c57600080fd5b5061048760048036038101906104829190612081565b610eb7565b6040516104949190612029565b60405180910390f35b3480156104a957600080fd5b506104b2610f1f565b6040516104bf9190612185565b60405180910390f35b3480156104d457600080fd5b506104ef60048036038101906104ea919061261b565b610f25565b6040516104fc9190611f7e565b60405180910390f35b60007f80ac58cd000000000000000000000000000000000000000000000000000000007bffffffffffffffffffffffffffffffffffffffffffffffffffffffff1916827bffffffffffffffffffffffffffffffffffffffffffffffffffffffff191614806105d057507f5b5e139f000000000000000000000000000000000000000000000000000000007bffffffffffffffffffffffffffffffffffffffffffffffffffffffff1916827bffffffffffffffffffffffffffffffffffffffffffffffffffffffff1916145b806105e057506105df82610fb9565b5b9050919050565b6060600080546105f69061268a565b80601f01602080910402602001604051908101604052809291908181526020018280546106229061268a565b801561066f5780601f106106445761010080835404028352916020019161066f565b820191906000526020600020905b81548152906001019060200180831161065257829003601f168201915b5050505050905090565b600061068482611023565b6004600083815260200190815260200160002060009054906101000a900473ffffffffffffffffffffffffffffffffffffffff169050919050565b60006106ca82610b83565b90508073ffffffffffffffffffffffffffffffffffffffff168373ffffffffffffffffffffffffffffffffffffffff160361073a576040517f08c379a00000000000000000000000000000000000000000000000000000000081526004016107319061272d565b60405180910390fd5b8073ffffffffffffffffffffffffffffffffffffffff1661075961106e565b73ffffffffffffffffffffffffffffffffffffffff16148061078857506107878161078261106e565b610f25565b5b6107c7576040517f08c379a00000000000000000000000000000000000000000000000000000000081526004016107be906127bf565b60405180910390fd5b6107d18383611076565b505050565b600047905090565b60075481565b6107ec611ea7565b6009600083815260200190815260200160002060405180606001604052908160008201805461081a9061268a565b80601f01602080910402602001604051908101604052809291908181526020018280546108469061268a565b80156108935780601f1061086857610100808354040283529160200191610893565b820191906000526020600020905b81548152906001019060200180831161087657829003601f168201915b50505050508152602001600182015481526020016002820160009054906101000a900460ff1615151515815250509050919050565b6108d96108d361106e565b8261112f565b610918576040517f08c379a000000000000000000000000000000000000000000000000000000000815260040161090f90612851565b60405180910390fd5b6109238383836111c4565b505050565b600860009054906101000a900473ffffffffffffffffffffffffffffffffffffffff1673ffffffffffffffffffffffffffffffffffffffff163373ffffffffffffffffffffffffffffffffffffffff161461098257600080fd5b6000600860009054906101000a900473ffffffffffffffffffffffffffffffffffffffff1673ffffffffffffffffffffffffffffffffffffffff16476040516109ca906128a2565b60006040518083038185875af1925050503d8060008114610a07576040519150601f19603f3d011682016040523d82523d6000602084013e610a0c565b606091505b5050905080610a1a57600080fd5b50565b610a3883838360405180602001604052806000815250610e55565b505050565b600860009054906101000a900473ffffffffffffffffffffffffffffffffffffffff1673ffffffffffffffffffffffffffffffffffffffff163373ffffffffffffffffffffffffffffffffffffffff1614610a9757600080fd5b600860009054906101000a900473ffffffffffffffffffffffffffffffffffffffff1673ffffffffffffffffffffffffffffffffffffffff163373ffffffffffffffffffffffffffffffffffffffff1614610af157600080fd5b60066000815480929190610b04906128e6565b91905055506040518060600160405280838152602001828152602001600015158152506009600060065481526020019081526020016000206000820151816000019081610b519190612ada565b506020820151816001015560408201518160020160006101000a81548160ff0219169083151502179055509050505050565b600080610b8f836114bd565b9050600073ffffffffffffffffffffffffffffffffffffffff168173ffffffffffffffffffffffffffffffffffffffff1603610c00576040517f08c379a0000000000000000000000000000000000000000000000000000000008152600401610bf790612bf8565b60405180910390fd5b80915050919050565b60008073ffffffffffffffffffffffffffffffffffffffff168273ffffffffffffffffffffffffffffffffffffffff1603610c79576040517f08c379a0000000000000000000000000000000000000000000000000000000008152600401610c7090612c8a565b60405180910390fd5b600360008373ffffffffffffffffffffffffffffffffffffffff1673ffffffffffffffffffffffffffffffffffffffff168152602001908152602001600020549050919050565b600860009054906101000a900473ffffffffffffffffffffffffffffffffffffffff1681565b606060018054610cf59061268a565b80601f0160208091040260200160405190810160405280929190818152602001828054610d219061268a565b8015610d6e5780601f10610d4357610100808354040283529160200191610d6e565b820191906000526020600020905b815481529060010190602001808311610d5157829003601f168201915b5050505050905090565b60008103610d8557600080fd5b600654811115610d9457600080fd5b600015156009600083815260200190815260200160002060020160009054906101000a900460ff16151514610dc857600080fd5b6009600082815260200190815260200160002060010154341015610deb57600080fd5b60016009600083815260200190815260200160002060020160006101000a81548160ff02191690831515021790555060076000815480929190610e2d906128e6565b9190505550610e3c33826114fa565b50565b610e51610e4a61106e565b8383611518565b5050565b610e66610e6061106e565b8361112f565b610ea5576040517f08c379a0000000000000000000000000000000000000000000000000000000008152600401610e9c90612851565b60405180910390fd5b610eb184848484611684565b50505050565b6060610ec282611023565b6000610ecc6116e0565b90506000815111610eec5760405180602001604052806000815250610f17565b80610ef6846116f7565b604051602001610f07929190612ce6565b6040516020818303038152906040525b915050919050565b60065481565b6000600560008473ffffffffffffffffffffffffffffffffffffffff1673ffffffffffffffffffffffffffffffffffffffff16815260200190815260200160002060008373ffffffffffffffffffffffffffffffffffffffff1673ffffffffffffffffffffffffffffffffffffffff16815260200190815260200160002060009054906101000a900460ff16905092915050565b60007f01ffc9a7000000000000000000000000000000000000000000000000000000007bffffffffffffffffffffffffffffffffffffffffffffffffffffffff1916827bffffffffffffffffffffffffffffffffffffffffffffffffffffffff1916149050919050565b61102c816117c5565b61106b576040517f08c379a000000000000000000000000000000000000000000000000000000000815260040161106290612bf8565b60405180910390fd5b50565b600033905090565b816004600083815260200190815260200160002060006101000a81548173ffffffffffffffffffffffffffffffffffffffff021916908373ffffffffffffffffffffffffffffffffffffffff160217905550808273ffffffffffffffffffffffffffffffffffffffff166110e983610b83565b73ffffffffffffffffffffffffffffffffffffffff167f8c5be1e5ebec7d5bd14f71427d1e84f3dd0314c0f7b2291e5b200ac8c7c3b92560405160405180910390a45050565b60008061113b83610b83565b90508073ffffffffffffffffffffffffffffffffffffffff168473ffffffffffffffffffffffffffffffffffffffff16148061117d575061117c8185610f25565b5b806111bb57508373ffffffffffffffffffffffffffffffffffffffff166111a384610679565b73ffffffffffffffffffffffffffffffffffffffff16145b91505092915050565b8273ffffffffffffffffffffffffffffffffffffffff166111e482610b83565b73ffffffffffffffffffffffffffffffffffffffff161461123a576040517f08c379a000000000000000000000000000000000000000000000000000000000815260040161123190612d7c565b60405180910390fd5b600073ffffffffffffffffffffffffffffffffffffffff168273ffffffffffffffffffffffffffffffffffffffff16036112a9576040517f08c379a00000000000000000000000000000000000000000000000000000000081526004016112a090612e0e565b60405180910390fd5b6112b68383836001611806565b8273ffffffffffffffffffffffffffffffffffffffff166112d682610b83565b73ffffffffffffffffffffffffffffffffffffffff161461132c576040517f08c379a000000000000000000000000000000000000000000000000000000000815260040161132390612d7c565b60405180910390fd5b6004600082815260200190815260200160002060006101000a81549073ffffffffffffffffffffffffffffffffffffffff02191690556001600360008573ffffffffffffffffffffffffffffffffffffffff1673ffffffffffffffffffffffffffffffffffffffff168152602001908152602001600020600082825403925050819055506001600360008473ffffffffffffffffffffffffffffffffffffffff1673ffffffffffffffffffffffffffffffffffffffff16815260200190815260200160002060008282540192505081905550816002600083815260200190815260200160002060006101000a81548173ffffffffffffffffffffffffffffffffffffffff021916908373ffffffffffffffffffffffffffffffffffffffff160217905550808273ffffffffffffffffffffffffffffffffffffffff168473ffffffffffffffffffffffffffffffffffffffff167fddf252ad1be2c89b69c2b068fc378daa952ba7f163c4a11628f55a4df523b3ef60405160405180910390a46114b8838383600161192c565b505050565b60006002600083815260200190815260200160002060009054906101000a900473ffffffffffffffffffffffffffffffffffffffff169050919050565b611514828260405180602001604052806000815250611932565b5050565b8173ffffffffffffffffffffffffffffffffffffffff168373ffffffffffffffffffffffffffffffffffffffff1603611586576040517f08c379a000000000000000000000000000000000000000000000000000000000815260040161157d90612e7a565b60405180910390fd5b80600560008573ffffffffffffffffffffffffffffffffffffffff1673ffffffffffffffffffffffffffffffffffffffff16815260200190815260200160002060008473ffffffffffffffffffffffffffffffffffffffff1673ffffffffffffffffffffffffffffffffffffffff16815260200190815260200160002060006101000a81548160ff0219169083151502179055508173ffffffffffffffffffffffffffffffffffffffff168373ffffffffffffffffffffffffffffffffffffffff167f17307eab39ab6107e8899845ad3d59bd9653f200f220920489ca2b5937696c31836040516116779190611f7e565b60405180910390a3505050565b61168f8484846111c4565b61169b8484848461198d565b6116da576040517f08c379a00000000000000000000000000000000000000000000000000000000081526004016116d190612f0c565b60405180910390fd5b50505050565b606060405180602001604052806000815250905090565b60606000600161170684611b14565b01905060008167ffffffffffffffff811115611725576117246122d7565b5b6040519080825280601f01601f1916602001820160405280156117575781602001600182028036833780820191505090505b509050600082602001820190505b6001156117ba578080600190039150507f3031323334353637383961626364656600000000000000000000000000000000600a86061a8153600a85816117ae576117ad612f2c565b5b04945060008503611765575b819350505050919050565b60008073ffffffffffffffffffffffffffffffffffffffff166117e7836114bd565b73ffffffffffffffffffffffffffffffffffffffff1614159050919050565b600181111561192657600073ffffffffffffffffffffffffffffffffffffffff168473ffffffffffffffffffffffffffffffffffffffff161461189a5780600360008673ffffffffffffffffffffffffffffffffffffffff1673ffffffffffffffffffffffffffffffffffffffff16815260200190815260200160002060008282546118929190612f5b565b925050819055505b600073ffffffffffffffffffffffffffffffffffffffff168373ffffffffffffffffffffffffffffffffffffffff16146119255780600360008573ffffffffffffffffffffffffffffffffffffffff1673ffffffffffffffffffffffffffffffffffffffff168152602001908152602001600020600082825461191d9190612f8f565b925050819055505b5b50505050565b50505050565b61193c8383611c67565b611949600084848461198d565b611988576040517f08c379a000000000000000000000000000000000000000000000000000000000815260040161197f90612f0c565b60405180910390fd5b505050565b60006119ae8473ffffffffffffffffffffffffffffffffffffffff16611e84565b15611b07578373ffffffffffffffffffffffffffffffffffffffff1663150b7a026119d761106e565b8786866040518563ffffffff1660e01b81526004016119f99493929190613018565b6020604051808303816000875af1925050508015611a3557506040513d601f19601f82011682018060405250810190611a329190613079565b60015b611ab7573d8060008114611a65576040519150601f19603f3d011682016040523d82523d6000602084013e611a6a565b606091505b506000815103611aaf576040517f08c379a0000000000000000000000000000000000000000000000000000000008152600401611aa690612f0c565b60405180910390fd5b805181602001fd5b63150b7a0260e01b7bffffffffffffffffffffffffffffffffffffffffffffffffffffffff1916817bffffffffffffffffffffffffffffffffffffffffffffffffffffffff191614915050611b0c565b600190505b949350505050565b600080600090507a184f03e93ff9f4daa797ed6e38ed64bf6a1f0100000000000000008310611b72577a184f03e93ff9f4daa797ed6e38ed64bf6a1f0100000000000000008381611b6857611b67612f2c565b5b0492506040810190505b6d04ee2d6d415b85acef81000000008310611baf576d04ee2d6d415b85acef81000000008381611ba557611ba4612f2c565b5b0492506020810190505b662386f26fc100008310611bde57662386f26fc100008381611bd457611bd3612f2c565b5b0492506010810190505b6305f5e1008310611c07576305f5e1008381611bfd57611bfc612f2c565b5b0492506008810190505b6127108310611c2c576127108381611c2257611c21612f2c565b5b0492506004810190505b60648310611c4f5760648381611c4557611c44612f2c565b5b0492506002810190505b600a8310611c5e576001810190505b80915050919050565b600073ffffffffffffffffffffffffffffffffffffffff168273ffffffffffffffffffffffffffffffffffffffff1603611cd6576040517f08c379a0000000000000000000000000000000000000000000000000000000008152600401611ccd906130f2565b60405180910390fd5b611cdf816117c5565b15611d1f576040517f08c379a0000000000000000000000000000000000000000000000000000000008152600401611d169061315e565b60405180910390fd5b611d2d600083836001611806565b611d36816117c5565b15611d76576040517f08c379a0000000000000000000000000000000000000000000000000000000008152600401611d6d9061315e565b60405180910390fd5b6001600360008473ffffffffffffffffffffffffffffffffffffffff1673ffffffffffffffffffffffffffffffffffffffff16815260200190815260200160002060008282540192505081905550816002600083815260200190815260200160002060006101000a81548173ffffffffffffffffffffffffffffffffffffffff021916908373ffffffffffffffffffffffffffffffffffffffff160217905550808273ffffffffffffffffffffffffffffffffffffffff16600073ffffffffffffffffffffffffffffffffffffffff167fddf252ad1be2c89b69c2b068fc378daa952ba7f163c4a11628f55a4df523b3ef60405160405180910390a4611e8060008383600161192c565b5050565b6000808273ffffffffffffffffffffffffffffffffffffffff163b119050919050565b604051806060016040528060608152602001600081526020016000151581525090565b6000604051905090565b600080fd5b600080fd5b60007fffffffff0000000000000000000000000000000000000000000000000000000082169050919050565b611f1381611ede565b8114611f1e57600080fd5b50565b600081359050611f3081611f0a565b92915050565b600060208284031215611f4c57611f4b611ed4565b5b6000611f5a84828501611f21565b91505092915050565b60008115159050919050565b611f7881611f63565b82525050565b6000602082019050611f936000830184611f6f565b92915050565b600081519050919050565b600082825260208201905092915050565b60005b83811015611fd3578082015181840152602081019050611fb8565b60008484015250505050565b6000601f19601f8301169050919050565b6000611ffb82611f99565b6120058185611fa4565b9350612015818560208601611fb5565b61201e81611fdf565b840191505092915050565b600060208201905081810360008301526120438184611ff0565b905092915050565b6000819050919050565b61205e8161204b565b811461206957600080fd5b50565b60008135905061207b81612055565b92915050565b60006020828403121561209757612096611ed4565b5b60006120a58482850161206c565b91505092915050565b600073ffffffffffffffffffffffffffffffffffffffff82169050919050565b60006120d9826120ae565b9050919050565b6120e9816120ce565b82525050565b600060208201905061210460008301846120e0565b92915050565b612113816120ce565b811461211e57600080fd5b50565b6000813590506121308161210a565b92915050565b6000806040838503121561214d5761214c611ed4565b5b600061215b85828601612121565b925050602061216c8582860161206c565b9150509250929050565b61217f8161204b565b82525050565b600060208201905061219a6000830184612176565b92915050565b600082825260208201905092915050565b60006121bc82611f99565b6121c681856121a0565b93506121d6818560208601611fb5565b6121df81611fdf565b840191505092915050565b6121f38161204b565b82525050565b61220281611f63565b82525050565b6000606083016000830151848203600086015261222582826121b1565b915050602083015161223a60208601826121ea565b50604083015161224d60408601826121f9565b508091505092915050565b600060208201905081810360008301526122728184612208565b905092915050565b60008060006060848603121561229357612292611ed4565b5b60006122a186828701612121565b93505060206122b286828701612121565b92505060406122c38682870161206c565b9150509250925092565b600080fd5b600080fd5b7f4e487b7100000000000000000000000000000000000000000000000000000000600052604160045260246000fd5b61230f82611fdf565b810181811067ffffffffffffffff8211171561232e5761232d6122d7565b5b80604052505050565b6000612341611eca565b905061234d8282612306565b919050565b600067ffffffffffffffff82111561236d5761236c6122d7565b5b61237682611fdf565b9050602081019050919050565b82818337600083830152505050565b60006123a56123a084612352565b612337565b9050828152602081018484840111156123c1576123c06122d2565b5b6123cc848285612383565b509392505050565b600082601f8301126123e9576123e86122cd565b5b81356123f9848260208601612392565b91505092915050565b6000806040838503121561241957612418611ed4565b5b600083013567ffffffffffffffff81111561243757612436611ed9565b5b612443858286016123d4565b92505060206124548582860161206c565b9150509250929050565b60006020828403121561247457612473611ed4565b5b600061248284828501612121565b91505092915050565b61249481611f63565b811461249f57600080fd5b50565b6000813590506124b18161248b565b92915050565b600080604083850312156124ce576124cd611ed4565b5b60006124dc85828601612121565b92505060206124ed858286016124a2565b9150509250929050565b600067ffffffffffffffff821115612512576125116122d7565b5b61251b82611fdf565b9050602081019050919050565b600061253b612536846124f7565b612337565b905082815260208101848484011115612557576125566122d2565b5b612562848285612383565b509392505050565b600082601f83011261257f5761257e6122cd565b5b813561258f848260208601612528565b91505092915050565b600080600080608085870312156125b2576125b1611ed4565b5b60006125c087828801612121565b94505060206125d187828801612121565b93505060406125e28782880161206c565b925050606085013567ffffffffffffffff81111561260357612602611ed9565b5b61260f8782880161256a565b91505092959194509250565b6000806040838503121561263257612631611ed4565b5b600061264085828601612121565b925050602061265185828601612121565b9150509250929050565b7f4e487b7100000000000000000000000000000000000000000000000000000000600052602260045260246000fd5b600060028204905060018216806126a257607f821691505b6020821081036126b5576126b461265b565b5b50919050565b7f4552433732313a20617070726f76616c20746f2063757272656e74206f776e6560008201527f7200000000000000000000000000000000000000000000000000000000000000602082015250565b6000612717602183611fa4565b9150612722826126bb565b604082019050919050565b600060208201905081810360008301526127468161270a565b9050919050565b7f4552433732313a20617070726f76652063616c6c6572206973206e6f7420746f60008201527f6b656e206f776e6572206f7220617070726f76656420666f7220616c6c000000602082015250565b60006127a9603d83611fa4565b91506127b48261274d565b604082019050919050565b600060208201905081810360008301526127d88161279c565b9050919050565b7f4552433732313a2063616c6c6572206973206e6f7420746f6b656e206f776e6560008201527f72206f7220617070726f76656400000000000000000000000000000000000000602082015250565b600061283b602d83611fa4565b9150612846826127df565b604082019050919050565b6000602082019050818103600083015261286a8161282e565b9050919050565b600081905092915050565b50565b600061288c600083612871565b91506128978261287c565b600082019050919050565b60006128ad8261287f565b9150819050919050565b7f4e487b7100000000000000000000000000000000000000000000000000000000600052601160045260246000fd5b60006128f18261204b565b91507fffffffffffffffffffffffffffffffffffffffffffffffffffffffffffffffff8203612923576129226128b7565b5b600182019050919050565b60008190508160005260206000209050919050565b60006020601f8301049050919050565b600082821b905092915050565b6000600883026129907fffffffffffffffffffffffffffffffffffffffffffffffffffffffffffffffff82612953565b61299a8683612953565b95508019841693508086168417925050509392505050565b6000819050919050565b60006129d76129d26129cd8461204b565b6129b2565b61204b565b9050919050565b6000819050919050565b6129f1836129bc565b612a056129fd826129de565b848454612960565b825550505050565b600090565b612a1a612a0d565b612a258184846129e8565b505050565b5b81811015612a4957612a3e600082612a12565b600181019050612a2b565b5050565b601f821115612a8e57612a5f8161292e565b612a6884612943565b81016020851015612a77578190505b612a8b612a8385612943565b830182612a2a565b50505b505050565b600082821c905092915050565b6000612ab160001984600802612a93565b1980831691505092915050565b6000612aca8383612aa0565b9150826002028217905092915050565b612ae382611f99565b67ffffffffffffffff811115612afc57612afb6122d7565b5b612b06825461268a565b612b11828285612a4d565b600060209050601f831160018114612b445760008415612b32578287015190505b612b3c8582612abe565b865550612ba4565b601f198416612b528661292e565b60005b82811015612b7a57848901518255600182019150602085019450602081019050612b55565b86831015612b975784890151612b93601f891682612aa0565b8355505b6001600288020188555050505b505050505050565b7f4552433732313a20696e76616c696420746f6b656e2049440000000000000000600082015250565b6000612be2601883611fa4565b9150612bed82612bac565b602082019050919050565b60006020820190508181036000830152612c1181612bd5565b9050919050565b7f4552433732313a2061646472657373207a65726f206973206e6f74206120766160008201527f6c6964206f776e65720000000000000000000000000000000000000000000000602082015250565b6000612c74602983611fa4565b9150612c7f82612c18565b604082019050919050565b60006020820190508181036000830152612ca381612c67565b9050919050565b600081905092915050565b6000612cc082611f99565b612cca8185612caa565b9350612cda818560208601611fb5565b80840191505092915050565b6000612cf28285612cb5565b9150612cfe8284612cb5565b91508190509392505050565b7f4552433732313a207472616e736665722066726f6d20696e636f72726563742060008201527f6f776e6572000000000000000000000000000000000000000000000000000000602082015250565b6000612d66602583611fa4565b9150612d7182612d0a565b604082019050919050565b60006020820190508181036000830152612d9581612d59565b9050919050565b7f4552433732313a207472616e7366657220746f20746865207a65726f2061646460008201527f7265737300000000000000000000000000000000000000000000000000000000602082015250565b6000612df8602483611fa4565b9150612e0382612d9c565b604082019050919050565b60006020820190508181036000830152612e2781612deb565b9050919050565b7f4552433732313a20617070726f766520746f2063616c6c657200000000000000600082015250565b6000612e64601983611fa4565b9150612e6f82612e2e565b602082019050919050565b60006020820190508181036000830152612e9381612e57565b9050919050565b7f4552433732313a207472616e7366657220746f206e6f6e20455243373231526560008201527f63656976657220696d706c656d656e7465720000000000000000000000000000602082015250565b6000612ef6603283611fa4565b9150612f0182612e9a565b604082019050919050565b60006020820190508181036000830152612f2581612ee9565b9050919050565b7f4e487b7100000000000000000000000000000000000000000000000000000000600052601260045260246000fd5b6000612f668261204b565b9150612f718361204b565b9250828203905081811115612f8957612f886128b7565b5b92915050565b6000612f9a8261204b565b9150612fa58361204b565b9250828201905080821115612fbd57612fbc6128b7565b5b92915050565b600081519050919050565b600082825260208201905092915050565b6000612fea82612fc3565b612ff48185612fce565b9350613004818560208601611fb5565b61300d81611fdf565b840191505092915050565b600060808201905061302d60008301876120e0565b61303a60208301866120e0565b6130476040830185612176565b81810360608301526130598184612fdf565b905095945050505050565b60008151905061307381611f0a565b92915050565b60006020828403121561308f5761308e611ed4565b5b600061309d84828501613064565b91505092915050565b7f4552433732313a206d696e7420746f20746865207a65726f2061646472657373600082015250565b60006130dc602083611fa4565b91506130e7826130a6565b602082019050919050565b6000602082019050818103600083015261310b816130cf565b9050919050565b7f4552433732313a20746f6b656e20616c7265616479206d696e74656400000000600082015250565b6000613148601c83611fa4565b915061315382613112565b602082019050919050565b600060208201905081810360008301526131778161313b565b905091905056fea26469706673582212200b9e97bf79c2cb823d5311a3f274528c671e8679be7b4d402ee4d35cd3763f3464736f6c63430008110033",
  "linkReferences": {},
  "deployedLinkReferences": {}
}