{
  "_format": "hh-sol-artifact-1",
  "contractName": "ETHDaddy",
  "sourceName": "contracts/ETHDaddy.sol",
  "abi": [
    {
      "inputs": [
        {
          "internalType": "string",
          "name": "_name",
          "type": "string"
        },
        {
          "internalType": "string",
          "name": "_symbol",
          "type": "string"
        }
      ],
      "stateMutability": "nonpayable",
      "type": "constructor"
    },
    {
      "anonymous": false,
      "inputs": [
        {
          "indexed": true,
          "internalType": "address",
          "name": "owner",
          "type": "address"
        },
        {
          "indexed": true,
          "internalType": "address",
          "name": "approved",
          "type": "address"
        },
        {
          "indexed": true,
          "internalType": "uint256",
          "name": "tokenId",
          "type": "uint256"
        }
      ],
      "name": "Approval",
      "type": "event"
    },
    {
      "anonymous": false,
      "inputs": [
        {
          "indexed": true,
          "internalType": "address",
          "name": "owner",
          "type": "address"
        },
        {
          "indexed": true,
          "internalType": "address",
          "name": "operator",
          "type": "address"
        },
        {
          "indexed": false,
          "internalType": "bool",
          "name": "approved",
          "type": "bool"
        }
      ],
      "name": "ApprovalForAll",
      "type": "event"
    },
    {
      "anonymous": false,
      "inputs": [
        {
          "indexed": true,
          "internalType": "address",
          "name": "from",
          "type": "address"
        },
        {
          "indexed": true,
          "internalType": "address",
          "name": "to",
          "type": "address"
        },
        {
          "indexed": true,
          "internalType": "uint256",
          "name": "tokenId",
          "type": "uint256"
        }
      ],
      "name": "Transfer",
      "type": "event"
    },
    {
      "inputs": [
        {
          "internalType": "address",
          "name": "to",
          "type": "address"
        },
        {
          "internalType": "uint256",
          "name": "tokenId",
          "type": "uint256"
        }
      ],
      "name": "approve",
      "outputs": [],
      "stateMutability": "nonpayable",
      "type": "function"
    },
    {
      "inputs": [
        {
          "internalType": "address",
          "name": "owner",
          "type": "address"
        }
      ],
      "name": "balanceOf",
      "outputs": [
        {
          "internalType": "uint256",
          "name": "",
          "type": "uint256"
        }
      ],
      "stateMutability": "view",
      "type": "function"
    },
    {
      "inputs": [
        {
          "internalType": "uint256",
          "name": "tokenId",
          "type": "uint256"
        }
      ],
      "name": "getApproved",
      "outputs": [
        {
          "internalType": "address",
          "name": "",
          "type": "address"
        }
      ],
      "stateMutability": "view",
      "type": "function"
    },
    {
      "inputs": [],
      "name": "getBalance",
      "outputs": [
        {
          "internalType": "uint256",
          "name": "",
          "type": "uint256"
        }
      ],
      "stateMutability": "view",
      "type": "function"
    },
    {
      "inputs": [
        {
          "internalType": "uint256",
          "name": "_id",
          "type": "uint256"
        }
      ],
      "name": "getDomain",
      "outputs": [
        {
          "components": [
            {
              "internalType": "string",
              "name": "name",
              "type": "string"
            },
            {
              "internalType": "uint256",
              "name": "cost",
              "type": "uint256"
            },
            {
              "internalType": "bool",
              "name": "isOwned",
              "type": "bool"
            }
          ],
          "internalType": "struct ETHDaddy.Domain",
          "name": "",
          "type": "tuple"
        }
      ],
      "stateMutability": "view",
      "type": "function"
    },
    {
      "inputs": [
        {
          "internalType": "address",
          "name": "owner",
          "type": "address"
        },
        {
          "internalType": "address",
          "name": "operator",
          "type": "address"
        }
      ],
      "name": "isApprovedForAll",
      "outputs": [
        {
          "internalType": "bool",
          "name": "",
          "type": "bool"
        }
      ],
      "stateMutability": "view",
      "type": "function"
    },
    {
      "inputs": [
        {
          "internalType": "string",
          "name": "_name",
          "type": "string"
        },
        {
          "internalType": "uint256",
          "name": "_cost",
          "type": "uint256"
        }
      ],
      "name": "list",
      "outputs": [],
      "stateMutability": "nonpayable",
      "type": "function"
    },
    {
      "inputs": [],
      "name": "maxSupply",
      "outputs": [
        {
          "internalType": "uint256",
          "name": "",
          "type": "uint256"
        }
      ],
      "stateMutability": "view",
      "type": "function"
    },
    {
      "inputs": [
        {
          "internalType": "uint256",
          "name": "_id",
          "type": "uint256"
        }
      ],
      "name": "mint",
      "outputs": [],
      "stateMutability": "payable",
      "type": "function"
    },
    {
      "inputs": [],
      "name": "name",
      "outputs": [
        {
          "internalType": "string",
          "name": "",
          "type": "string"
        }
      ],
      "stateMutability": "view",
      "type": "function"
    },
    {
      "inputs": [],
      "name": "owner",
      "outputs": [
        {
          "internalType": "address",
          "name": "",
          "type": "address"
        }
      ],
      "stateMutability": "view",
      "type": "function"
    },
    {
      "inputs": [
        {
          "internalType": "uint256",
          "name": "tokenId",
          "type": "uint256"
        }
      ],
      "name": "ownerOf",
      "outputs": [
        {
          "internalType": "address",
          "name": "",
          "type": "address"
        }
      ],
      "stateMutability": "view",
      "type": "function"
    },
    {
      "inputs": [
        {
          "internalType": "address",
          "name": "from",
          "type": "address"
        },
        {
          "internalType": "address",
          "name": "to",
          "type": "address"
        },
        {
          "internalType": "uint256",
          "name": "tokenId",
          "type": "uint256"
        }
      ],
      "name": "safeTransferFrom",
      "outputs": [],
      "stateMutability": "nonpayable",
      "type": "function"
    },
    {
      "inputs": [
        {
          "internalType": "address",
          "name": "from",
          "type": "address"
        },
        {
          "internalType": "address",
          "name": "to",
          "type": "address"
        },
        {
          "internalType": "uint256",
          "name": "tokenId",
          "type": "uint256"
        },
        {
          "internalType": "bytes",
          "name": "data",
          "type": "bytes"
        }
      ],
      "name": "safeTransferFrom",
      "outputs": [],
      "stateMutability": "nonpayable",
      "type": "function"
    },
    {
      "inputs": [
        {
          "internalType": "address",
          "name": "operator",
          "type": "address"
        },
        {
          "internalType": "bool",
          "name": "approved",
          "type": "bool"
        }
      ],
      "name": "setApprovalForAll",
      "outputs": [],
      "stateMutability": "nonpayable",
      "type": "function"
    },
    {
      "inputs": [
        {
          "internalType": "bytes4",
          "name": "interfaceId",
          "type": "bytes4"
        }
      ],
      "name": "supportsInterface",
      "outputs": [
        {
          "internalType": "bool",
          "name": "",
          "type": "bool"
        }
      ],
      "stateMutability": "view",
      "type": "function"
    },
    {
      "inputs": [],
      "name": "symbol",
      "outputs": [
        {
          "internalType": "string",
          "name": "",
          "type": "string"
        }
      ],
      "stateMutability": "view",
      "type": "function"
    },
    {
      "inputs": [
        {
          "internalType": "uint256",
          "name": "tokenId",
          "type": "uint256"
        }
      ],
      "name": "tokenURI",
      "outputs": [
        {
          "internalType": "string",
          "name": "",
          "type": "string"
        }
      ],
      "stateMutability": "view",
      "type": "function"
    },
    {
      "inputs": [],
      "name": "totalSupply",
      "outputs": [
        {
          "internalType": "uint256",
          "name": "",
          "type": "uint256"
        }
      ],
      "stateMutability": "view",
      "type": "function"
    },
    {
      "inputs": [
        {
          "internalType": "address",
          "name": "from",
          "type": "address"
        },
        {
          "internalType": "address",
          "name": "to",
          "type": "address"
        },
        {
          "internalType": "uint256",
          "name": "tokenId",
          "type": "uint256"
        }
      ],
      "name": "transferFrom",
      "outputs": [],
      "stateMutability": "nonpayable",
      "type": "function"
    },
    {
      "inputs": [],
      "name": "withdraw",
      "outputs": [],
      "stateMutability": "nonpayable",
      "type": "function"
    }
  ],
  "bytecode": "0x60806040523480156200001157600080fd5b506040516200362e3803806200362e83398181016040528101906200003791906200023b565b818181600090816200004a91906200050b565b5080600190816200005c91906200050b565b50505033600860006101000a81548173ffffffffffffffffffffffffffffffffffffffff021916908373ffffffffffffffffffffffffffffffffffffffff1602179055505050620005f2565b6000604051905090565b600080fd5b600080fd5b600080fd5b600080fd5b6000601f19601f8301169050919050565b7f4e487b7100000000000000000000000000000000000000000000000000000000600052604160045260246000fd5b6200011182620000c6565b810181811067ffffffffffffffff82111715620001335762000132620000d7565b5b80604052505050565b600062000148620000a8565b905062000156828262000106565b919050565b600067ffffffffffffffff821115620001795762000178620000d7565b5b6200018482620000c6565b9050602081019050919050565b60005b83811015620001b157808201518184015260208101905062000194565b60008484015250505050565b6000620001d4620001ce846200015b565b6200013c565b905082815260208101848484011115620001f357620001f2620000c1565b5b6200020084828562000191565b509392505050565b600082601f83011262000220576200021f620000bc565b5b815162000232848260208601620001bd565b91505092915050565b60008060408385031215620002555762000254620000b2565b5b600083015167ffffffffffffffff811115620002765762000275620000b7565b5b620002848582860162000208565b925050602083015167ffffffffffffffff811115620002a857620002a7620000b7565b5b620002b68582860162000208565b9150509250929050565b600081519050919050565b7f4e487b7100000000000000000000000000000000000000000000000000000000600052602260045260246000fd5b600060028204905060018216806200031357607f821691505b602082108103620003295762000328620002cb565b5b50919050565b60008190508160005260206000209050919050565b60006020601f8301049050919050565b600082821b905092915050565b600060088302620003937fffffffffffffffffffffffffffffffffffffffffffffffffffffffffffffffff8262000354565b6200039f868362000354565b95508019841693508086168417925050509392505050565b6000819050919050565b6000819050919050565b6000620003ec620003e6620003e084620003b7565b620003c1565b620003b7565b9050919050565b6000819050919050565b6200040883620003cb565b620004206200041782620003f3565b84845462000361565b825550505050565b600090565b6200043762000428565b62000444818484620003fd565b505050565b5b818110156200046c57620004606000826200042d565b6001810190506200044a565b5050565b601f821115620004bb5762000485816200032f565b620004908462000344565b81016020851015620004a0578190505b620004b8620004af8562000344565b83018262000449565b50505b505050565b600082821c905092915050565b6000620004e060001984600802620004c0565b1980831691505092915050565b6000620004fb8383620004cd565b9150826002028217905092915050565b6200051682620002c0565b67ffffffffffffffff811115620005325762000531620000d7565b5b6200053e8254620002fa565b6200054b82828562000470565b600060209050601f8311600181146200058357600084156200056e578287015190505b6200057a8582620004ed565b865550620005ea565b601f19841662000593866200032f565b60005b82811015620005bd5784890151825560018201915060208501945060208101905062000596565b86831015620005dd5784890151620005d9601f891682620004cd565b8355505b6001600288020188555050505b505050505050565b61302c80620006026000396000f3fe60806040526004361061012a5760003560e01c80634a878dfa116100ab578063a0712d681161006f578063a0712d68146103f2578063a22cb4651461040e578063b88d4fde14610437578063c87b56dd14610460578063d5abeb011461049d578063e985e9c5146104c85761012a565b80634a878dfa146102f95780636352211e1461032257806370a082311461035f5780638da5cb5b1461039c57806395d89b41146103c75761012a565b806318160ddd116100f257806318160ddd146102285780631a7a98e21461025357806323b872dd146102905780633ccfd60b146102b957806342842e0e146102d05761012a565b806301ffc9a71461012f57806306fdde031461016c578063081812fc14610197578063095ea7b3146101d457806312065fe0146101fd575b600080fd5b34801561013b57600080fd5b5061015660048036038101906101519190611e16565b610505565b6040516101639190611e5e565b60405180910390f35b34801561017857600080fd5b506101816105e7565b60405161018e9190611f09565b60405180910390f35b3480156101a357600080fd5b506101be60048036038101906101b99190611f61565b610679565b6040516101cb9190611fcf565b60405180910390f35b3480156101e057600080fd5b506101fb60048036038101906101f69190612016565b6106bf565b005b34801561020957600080fd5b506102126107d6565b60405161021f9190612065565b60405180910390f35b34801561023457600080fd5b5061023d6107de565b60405161024a9190612065565b60405180910390f35b34801561025f57600080fd5b5061027a60048036038101906102759190611f61565b6107e4565b6040516102879190612138565b60405180910390f35b34801561029c57600080fd5b506102b760048036038101906102b2919061215a565b6108c8565b005b3480156102c557600080fd5b506102ce610928565b005b3480156102dc57600080fd5b506102f760048036038101906102f2919061215a565b610a1d565b005b34801561030557600080fd5b50610320600480360381019061031b91906122e2565b610a3d565b005b34801561032e57600080fd5b5061034960048036038101906103449190611f61565b610b83565b6040516103569190611fcf565b60405180910390f35b34801561036b57600080fd5b506103866004803603810190610381919061233e565b610c09565b6040516103939190612065565b60405180910390f35b3480156103a857600080fd5b506103b1610cc0565b6040516103be9190611fcf565b60405180910390f35b3480156103d357600080fd5b506103dc610ce6565b6040516103e99190611f09565b60405180910390f35b61040c60048036038101906104079190611f61565b610d78565b005b34801561041a57600080fd5b5061043560048036038101906104309190612397565b610e3f565b005b34801561044357600080fd5b5061045e60048036038101906104599190612478565b610e55565b005b34801561046c57600080fd5b5061048760048036038101906104829190611f61565b610eb7565b6040516104949190611f09565b60405180910390f35b3480156104a957600080fd5b506104b2610f1f565b6040516104bf9190612065565b60405180910390f35b3480156104d457600080fd5b506104ef60048036038101906104ea91906124fb565b610f25565b6040516104fc9190611e5e565b60405180910390f35b60007f80ac58cd000000000000000000000000000000000000000000000000000000007bffffffffffffffffffffffffffffffffffffffffffffffffffffffff1916827bffffffffffffffffffffffffffffffffffffffffffffffffffffffff191614806105d057507f5b5e139f000000000000000000000000000000000000000000000000000000007bffffffffffffffffffffffffffffffffffffffffffffffffffffffff1916827bffffffffffffffffffffffffffffffffffffffffffffffffffffffff1916145b806105e057506105df82610fb9565b5b9050919050565b6060600080546105f69061256a565b80601f01602080910402602001604051908101604052809291908181526020018280546106229061256a565b801561066f5780601f106106445761010080835404028352916020019161066f565b820191906000526020600020905b81548152906001019060200180831161065257829003601f168201915b5050505050905090565b600061068482611023565b6004600083815260200190815260200160002060009054906101000a900473ffffffffffffffffffffffffffffffffffffffff169050919050565b60006106ca82610b83565b90508073ffffffffffffffffffffffffffffffffffffffff168373ffffffffffffffffffffffffffffffffffffffff160361073a576040517f08c379a00000000000000000000000000000000000000000000000000000000081526004016107319061260d565b60405180910390fd5b8073ffffffffffffffffffffffffffffffffffffffff1661075961106e565b73ffffffffffffffffffffffffffffffffffffffff16148061078857506107878161078261106e565b610f25565b5b6107c7576040517f08c379a00000000000000000000000000000000000000000000000000000000081526004016107be9061269f565b60405180910390fd5b6107d18383611076565b505050565b600047905090565b60075481565b6107ec611d87565b6009600083815260200190815260200160002060405180606001604052908160008201805461081a9061256a565b80601f01602080910402602001604051908101604052809291908181526020018280546108469061256a565b80156108935780601f1061086857610100808354040283529160200191610893565b820191906000526020600020905b81548152906001019060200180831161087657829003601f168201915b50505050508152602001600182015481526020016002820160009054906101000a900460ff1615151515815250509050919050565b6108d96108d361106e565b8261112f565b610918576040517f08c379a000000000000000000000000000000000000000000000000000000000815260040161090f90612731565b60405180910390fd5b6109238383836111c4565b505050565b600860009054906101000a900473ffffffffffffffffffffffffffffffffffffffff1673ffffffffffffffffffffffffffffffffffffffff163373ffffffffffffffffffffffffffffffffffffffff161461098257600080fd5b6000600860009054906101000a900473ffffffffffffffffffffffffffffffffffffffff1673ffffffffffffffffffffffffffffffffffffffff16476040516109ca90612782565b60006040518083038185875af1925050503d8060008114610a07576040519150601f19603f3d011682016040523d82523d6000602084013e610a0c565b606091505b5050905080610a1a57600080fd5b50565b610a3883838360405180602001604052806000815250610e55565b505050565b600860009054906101000a900473ffffffffffffffffffffffffffffffffffffffff1673ffffffffffffffffffffffffffffffffffffffff163373ffffffffffffffffffffffffffffffffffffffff1614610a9757600080fd5b600860009054906101000a900473ffffffffffffffffffffffffffffffffffffffff1673ffffffffffffffffffffffffffffffffffffffff163373ffffffffffffffffffffffffffffffffffffffff1614610af157600080fd5b60066000815480929190610b04906127c6565b91905055506040518060600160405280838152602001828152602001600015158152506009600060065481526020019081526020016000206000820151816000019081610b5191906129ba565b506020820151816001015560408201518160020160006101000a81548160ff0219169083151502179055509050505050565b600080610b8f836114bd565b9050600073ffffffffffffffffffffffffffffffffffffffff168173ffffffffffffffffffffffffffffffffffffffff1603610c00576040517f08c379a0000000000000000000000000000000000000000000000000000000008152600401610bf790612ad8565b60405180910390fd5b80915050919050565b60008073ffffffffffffffffffffffffffffffffffffffff168273ffffffffffffffffffffffffffffffffffffffff1603610c79576040517f08c379a0000000000000000000000000000000000000000000000000000000008152600401610c7090612b6a565b60405180910390fd5b600360008373ffffffffffffffffffffffffffffffffffffffff1673ffffffffffffffffffffffffffffffffffffffff168152602001908152602001600020549050919050565b600860009054906101000a900473ffffffffffffffffffffffffffffffffffffffff1681565b606060018054610cf59061256a565b80601f0160208091040260200160405190810160405280929190818152602001828054610d219061256a565b8015610d6e5780601f10610d4357610100808354040283529160200191610d6e565b820191906000526020600020905b815481529060010190602001808311610d5157829003601f168201915b5050505050905090565b60008103610d8557600080fd5b600654811115610d9457600080fd5b600015156009600083815260200190815260200160002060020160009054906101000a900460ff16151514610dc857600080fd5b6009600082815260200190815260200160002060010154341015610deb57600080fd5b60016009600083815260200190815260200160002060020160006101000a81548160ff02191690831515021790555060076000815480929190610e2d906127c6565b9190505550610e3c33826114fa565b50565b610e51610e4a61106e565b8383611518565b5050565b610e66610e6061106e565b8361112f565b610ea5576040517f08c379a0000000000000000000000000000000000000000000000000000000008152600401610e9c90612731565b60405180910390fd5b610eb184848484611684565b50505050565b6060610ec282611023565b6000610ecc6116e0565b90506000815111610eec5760405180602001604052806000815250610f17565b80610ef6846116f7565b604051602001610f07929190612bc6565b6040516020818303038152906040525b915050919050565b60065481565b6000600560008473ffffffffffffffffffffffffffffffffffffffff1673ffffffffffffffffffffffffffffffffffffffff16815260200190815260200160002060008373ffffffffffffffffffffffffffffffffffffffff1673ffffffffffffffffffffffffffffffffffffffff16815260200190815260200160002060009054906101000a900460ff16905092915050565b60007f01ffc9a7000000000000000000000000000000000000000000000000000000007bffffffffffffffffffffffffffffffffffffffffffffffffffffffff1916827bffffffffffffffffffffffffffffffffffffffffffffffffffffffff1916149050919050565b61102c816117c5565b61106b576040517f08c379a000000000000000000000000000000000000000000000000000000000815260040161106290612ad8565b60405180910390fd5b50565b600033905090565b816004600083815260200190815260200160002060006101000a81548173ffffffffffffffffffffffffffffffffffffffff021916908373ffffffffffffffffffffffffffffffffffffffff160217905550808273ffffffffffffffffffffffffffffffffffffffff166110e983610b83565b73ffffffffffffffffffffffffffffffffffffffff167f8c5be1e5ebec7d5bd14f71427d1e84f3dd0314c0f7b2291e5b200ac8c7c3b92560405160405180910390a45050565b60008061113b83610b83565b90508073ffffffffffffffffffffffffffffffffffffffff168473ffffffffffffffffffffffffffffffffffffffff16148061117d575061117c8185610f25565b5b806111bb57508373ffffffffffffffffffffffffffffffffffffffff166111a384610679565b73ffffffffffffffffffffffffffffffffffffffff16145b91505092915050565b8273ffffffffffffffffffffffffffffffffffffffff166111e482610b83565b73ffffffffffffffffffffffffffffffffffffffff161461123a576040517f08c379a000000000000000000000000000000000000000000000000000000000815260040161123190612c5c565b60405180910390fd5b600073ffffffffffffffffffffffffffffffffffffffff168273ffffffffffffffffffffffffffffffffffffffff16036112a9576040517f08c379a00000000000000000000000000000000000000000000000000000000081526004016112a090612cee565b60405180910390fd5b6112b68383836001611806565b8273ffffffffffffffffffffffffffffffffffffffff166112d682610b83565b73ffffffffffffffffffffffffffffffffffffffff161461132c576040517f08c379a000000000000000000000000000000000000000000000000000000000815260040161132390612c5c565b60405180910390fd5b6004600082815260200190815260200160002060006101000a81549073ffffffffffffffffffffffffffffffffffffffff02191690556001600360008573ffffffffffffffffffffffffffffffffffffffff1673ffffffffffffffffffffffffffffffffffffffff168152602001908152602001600020600082825403925050819055506001600360008473ffffffffffffffffffffffffffffffffffffffff1673ffffffffffffffffffffffffffffffffffffffff16815260200190815260200160002060008282540192505081905550816002600083815260200190815260200160002060006101000a81548173ffffffffffffffffffffffffffffffffffffffff021916908373ffffffffffffffffffffffffffffffffffffffff160217905550808273ffffffffffffffffffffffffffffffffffffffff168473ffffffffffffffffffffffffffffffffffffffff167fddf252ad1be2c89b69c2b068fc378daa952ba7f163c4a11628f55a4df523b3ef60405160405180910390a46114b8838383600161180c565b505050565b60006002600083815260200190815260200160002060009054906101000a900473ffffffffffffffffffffffffffffffffffffffff169050919050565b611514828260405180602001604052806000815250611812565b5050565b8173ffffffffffffffffffffffffffffffffffffffff168373ffffffffffffffffffffffffffffffffffffffff1603611586576040517f08c379a000000000000000000000000000000000000000000000000000000000815260040161157d90612d5a565b60405180910390fd5b80600560008573ffffffffffffffffffffffffffffffffffffffff1673ffffffffffffffffffffffffffffffffffffffff16815260200190815260200160002060008473ffffffffffffffffffffffffffffffffffffffff1673ffffffffffffffffffffffffffffffffffffffff16815260200190815260200160002060006101000a81548160ff0219169083151502179055508173ffffffffffffffffffffffffffffffffffffffff168373ffffffffffffffffffffffffffffffffffffffff167f17307eab39ab6107e8899845ad3d59bd9653f200f220920489ca2b5937696c31836040516116779190611e5e565b60405180910390a3505050565b61168f8484846111c4565b61169b8484848461186d565b6116da576040517f08c379a00000000000000000000000000000000000000000000000000000000081526004016116d190612dec565b60405180910390fd5b50505050565b606060405180602001604052806000815250905090565b606060006001611706846119f4565b01905060008167ffffffffffffffff811115611725576117246121b7565b5b6040519080825280601f01601f1916602001820160405280156117575781602001600182028036833780820191505090505b509050600082602001820190505b6001156117ba578080600190039150507f3031323334353637383961626364656600000000000000000000000000000000600a86061a8153600a85816117ae576117ad612e0c565b5b04945060008503611765575b819350505050919050565b60008073ffffffffffffffffffffffffffffffffffffffff166117e7836114bd565b73ffffffffffffffffffffffffffffffffffffffff1614159050919050565b50505050565b50505050565b61181c8383611b47565b611829600084848461186d565b611868576040517f08c379a000000000000000000000000000000000000000000000000000000000815260040161185f90612dec565b60405180910390fd5b505050565b600061188e8473ffffffffffffffffffffffffffffffffffffffff16611d64565b156119e7578373ffffffffffffffffffffffffffffffffffffffff1663150b7a026118b761106e565b8786866040518563ffffffff1660e01b81526004016118d99493929190612e90565b6020604051808303816000875af192505050801561191557506040513d601f19601f820116820180604052508101906119129190612ef1565b60015b611997573d8060008114611945576040519150601f19603f3d011682016040523d82523d6000602084013e61194a565b606091505b50600081510361198f576040517f08c379a000000000000000000000000000000000000000000000000000000000815260040161198690612dec565b60405180910390fd5b805181602001fd5b63150b7a0260e01b7bffffffffffffffffffffffffffffffffffffffffffffffffffffffff1916817bffffffffffffffffffffffffffffffffffffffffffffffffffffffff1916149150506119ec565b600190505b949350505050565b600080600090507a184f03e93ff9f4daa797ed6e38ed64bf6a1f0100000000000000008310611a52577a184f03e93ff9f4daa797ed6e38ed64bf6a1f0100000000000000008381611a4857611a47612e0c565b5b0492506040810190505b6d04ee2d6d415b85acef81000000008310611a8f576d04ee2d6d415b85acef81000000008381611a8557611a84612e0c565b5b0492506020810190505b662386f26fc100008310611abe57662386f26fc100008381611ab457611ab3612e0c565b5b0492506010810190505b6305f5e1008310611ae7576305f5e1008381611add57611adc612e0c565b5b0492506008810190505b6127108310611b0c576127108381611b0257611b01612e0c565b5b0492506004810190505b60648310611b2f5760648381611b2557611b24612e0c565b5b0492506002810190505b600a8310611b3e576001810190505b80915050919050565b600073ffffffffffffffffffffffffffffffffffffffff168273ffffffffffffffffffffffffffffffffffffffff1603611bb6576040517f08c379a0000000000000000000000000000000000000000000000000000000008152600401611bad90612f6a565b60405180910390fd5b611bbf816117c5565b15611bff576040517f08c379a0000000000000000000000000000000000000000000000000000000008152600401611bf690612fd6565b60405180910390fd5b611c0d600083836001611806565b611c16816117c5565b15611c56576040517f08c379a0000000000000000000000000000000000000000000000000000000008152600401611c4d90612fd6565b60405180910390fd5b6001600360008473ffffffffffffffffffffffffffffffffffffffff1673ffffffffffffffffffffffffffffffffffffffff16815260200190815260200160002060008282540192505081905550816002600083815260200190815260200160002060006101000a81548173ffffffffffffffffffffffffffffffffffffffff021916908373ffffffffffffffffffffffffffffffffffffffff160217905550808273ffffffffffffffffffffffffffffffffffffffff16600073ffffffffffffffffffffffffffffffffffffffff167fddf252ad1be2c89b69c2b068fc378daa952ba7f163c4a11628f55a4df523b3ef60405160405180910390a4611d6060008383600161180c565b5050565b6000808273ffffffffffffffffffffffffffffffffffffffff163b119050919050565b604051806060016040528060608152602001600081526020016000151581525090565b6000604051905090565b600080fd5b600080fd5b60007fffffffff0000000000000000000000000000000000000000000000000000000082169050919050565b611df381611dbe565b8114611dfe57600080fd5b50565b600081359050611e1081611dea565b92915050565b600060208284031215611e2c57611e2b611db4565b5b6000611e3a84828501611e01565b91505092915050565b60008115159050919050565b611e5881611e43565b82525050565b6000602082019050611e736000830184611e4f565b92915050565b600081519050919050565b600082825260208201905092915050565b60005b83811015611eb3578082015181840152602081019050611e98565b60008484015250505050565b6000601f19601f8301169050919050565b6000611edb82611e79565b611ee58185611e84565b9350611ef5818560208601611e95565b611efe81611ebf565b840191505092915050565b60006020820190508181036000830152611f238184611ed0565b905092915050565b6000819050919050565b611f3e81611f2b565b8114611f4957600080fd5b50565b600081359050611f5b81611f35565b92915050565b600060208284031215611f7757611f76611db4565b5b6000611f8584828501611f4c565b91505092915050565b600073ffffffffffffffffffffffffffffffffffffffff82169050919050565b6000611fb982611f8e565b9050919050565b611fc981611fae565b82525050565b6000602082019050611fe46000830184611fc0565b92915050565b611ff381611fae565b8114611ffe57600080fd5b50565b60008135905061201081611fea565b92915050565b6000806040838503121561202d5761202c611db4565b5b600061203b85828601612001565b925050602061204c85828601611f4c565b9150509250929050565b61205f81611f2b565b82525050565b600060208201905061207a6000830184612056565b92915050565b600082825260208201905092915050565b600061209c82611e79565b6120a68185612080565b93506120b6818560208601611e95565b6120bf81611ebf565b840191505092915050565b6120d381611f2b565b82525050565b6120e281611e43565b82525050565b600060608301600083015184820360008601526121058282612091565b915050602083015161211a60208601826120ca565b50604083015161212d60408601826120d9565b508091505092915050565b6000602082019050818103600083015261215281846120e8565b905092915050565b60008060006060848603121561217357612172611db4565b5b600061218186828701612001565b935050602061219286828701612001565b92505060406121a386828701611f4c565b9150509250925092565b600080fd5b600080fd5b7f4e487b7100000000000000000000000000000000000000000000000000000000600052604160045260246000fd5b6121ef82611ebf565b810181811067ffffffffffffffff8211171561220e5761220d6121b7565b5b80604052505050565b6000612221611daa565b905061222d82826121e6565b919050565b600067ffffffffffffffff82111561224d5761224c6121b7565b5b61225682611ebf565b9050602081019050919050565b82818337600083830152505050565b600061228561228084612232565b612217565b9050828152602081018484840111156122a1576122a06121b2565b5b6122ac848285612263565b509392505050565b600082601f8301126122c9576122c86121ad565b5b81356122d9848260208601612272565b91505092915050565b600080604083850312156122f9576122f8611db4565b5b600083013567ffffffffffffffff81111561231757612316611db9565b5b612323858286016122b4565b925050602061233485828601611f4c565b9150509250929050565b60006020828403121561235457612353611db4565b5b600061236284828501612001565b91505092915050565b61237481611e43565b811461237f57600080fd5b50565b6000813590506123918161236b565b92915050565b600080604083850312156123ae576123ad611db4565b5b60006123bc85828601612001565b92505060206123cd85828601612382565b9150509250929050565b600067ffffffffffffffff8211156123f2576123f16121b7565b5b6123fb82611ebf565b9050602081019050919050565b600061241b612416846123d7565b612217565b905082815260208101848484011115612437576124366121b2565b5b612442848285612263565b509392505050565b600082601f83011261245f5761245e6121ad565b5b813561246f848260208601612408565b91505092915050565b6000806000806080858703121561249257612491611db4565b5b60006124a087828801612001565b94505060206124b187828801612001565b93505060406124c287828801611f4c565b925050606085013567ffffffffffffffff8111156124e3576124e2611db9565b5b6124ef8782880161244a565b91505092959194509250565b6000806040838503121561251257612511611db4565b5b600061252085828601612001565b925050602061253185828601612001565b9150509250929050565b7f4e487b7100000000000000000000000000000000000000000000000000000000600052602260045260246000fd5b6000600282049050600182168061258257607f821691505b6020821081036125955761259461253b565b5b50919050565b7f4552433732313a20617070726f76616c20746f2063757272656e74206f776e6560008201527f7200000000000000000000000000000000000000000000000000000000000000602082015250565b60006125f7602183611e84565b91506126028261259b565b604082019050919050565b60006020820190508181036000830152612626816125ea565b9050919050565b7f4552433732313a20617070726f76652063616c6c6572206973206e6f7420746f60008201527f6b656e206f776e6572206f7220617070726f76656420666f7220616c6c000000602082015250565b6000612689603d83611e84565b91506126948261262d565b604082019050919050565b600060208201905081810360008301526126b88161267c565b9050919050565b7f4552433732313a2063616c6c6572206973206e6f7420746f6b656e206f776e6560008201527f72206f7220617070726f76656400000000000000000000000000000000000000602082015250565b600061271b602d83611e84565b9150612726826126bf565b604082019050919050565b6000602082019050818103600083015261274a8161270e565b9050919050565b600081905092915050565b50565b600061276c600083612751565b91506127778261275c565b600082019050919050565b600061278d8261275f565b9150819050919050565b7f4e487b7100000000000000000000000000000000000000000000000000000000600052601160045260246000fd5b60006127d182611f2b565b91507fffffffffffffffffffffffffffffffffffffffffffffffffffffffffffffffff820361280357612802612797565b5b600182019050919050565b60008190508160005260206000209050919050565b60006020601f8301049050919050565b600082821b905092915050565b6000600883026128707fffffffffffffffffffffffffffffffffffffffffffffffffffffffffffffffff82612833565b61287a8683612833565b95508019841693508086168417925050509392505050565b6000819050919050565b60006128b76128b26128ad84611f2b565b612892565b611f2b565b9050919050565b6000819050919050565b6128d18361289c565b6128e56128dd826128be565b848454612840565b825550505050565b600090565b6128fa6128ed565b6129058184846128c8565b505050565b5b818110156129295761291e6000826128f2565b60018101905061290b565b5050565b601f82111561296e5761293f8161280e565b61294884612823565b81016020851015612957578190505b61296b61296385612823565b83018261290a565b50505b505050565b600082821c905092915050565b600061299160001984600802612973565b1980831691505092915050565b60006129aa8383612980565b9150826002028217905092915050565b6129c382611e79565b67ffffffffffffffff8111156129dc576129db6121b7565b5b6129e6825461256a565b6129f182828561292d565b600060209050601f831160018114612a245760008415612a12578287015190505b612a1c858261299e565b865550612a84565b601f198416612a328661280e565b60005b82811015612a5a57848901518255600182019150602085019450602081019050612a35565b86831015612a775784890151612a73601f891682612980565b8355505b6001600288020188555050505b505050505050565b7f4552433732313a20696e76616c696420746f6b656e2049440000000000000000600082015250565b6000612ac2601883611e84565b9150612acd82612a8c565b602082019050919050565b60006020820190508181036000830152612af181612ab5565b9050919050565b7f4552433732313a2061646472657373207a65726f206973206e6f74206120766160008201527f6c6964206f776e65720000000000000000000000000000000000000000000000602082015250565b6000612b54602983611e84565b9150612b5f82612af8565b604082019050919050565b60006020820190508181036000830152612b8381612b47565b9050919050565b600081905092915050565b6000612ba082611e79565b612baa8185612b8a565b9350612bba818560208601611e95565b80840191505092915050565b6000612bd28285612b95565b9150612bde8284612b95565b91508190509392505050565b7f4552433732313a207472616e736665722066726f6d20696e636f72726563742060008201527f6f776e6572000000000000000000000000000000000000000000000000000000602082015250565b6000612c46602583611e84565b9150612c5182612bea565b604082019050919050565b60006020820190508181036000830152612c7581612c39565b9050919050565b7f4552433732313a207472616e7366657220746f20746865207a65726f2061646460008201527f7265737300000000000000000000000000000000000000000000000000000000602082015250565b6000612cd8602483611e84565b9150612ce382612c7c565b604082019050919050565b60006020820190508181036000830152612d0781612ccb565b9050919050565b7f4552433732313a20617070726f766520746f2063616c6c657200000000000000600082015250565b6000612d44601983611e84565b9150612d4f82612d0e565b602082019050919050565b60006020820190508181036000830152612d7381612d37565b9050919050565b7f4552433732313a207472616e7366657220746f206e6f6e20455243373231526560008201527f63656976657220696d706c656d656e7465720000000000000000000000000000602082015250565b6000612dd6603283611e84565b9150612de182612d7a565b604082019050919050565b60006020820190508181036000830152612e0581612dc9565b9050919050565b7f4e487b7100000000000000000000000000000000000000000000000000000000600052601260045260246000fd5b600081519050919050565b600082825260208201905092915050565b6000612e6282612e3b565b612e6c8185612e46565b9350612e7c818560208601611e95565b612e8581611ebf565b840191505092915050565b6000608082019050612ea56000830187611fc0565b612eb26020830186611fc0565b612ebf6040830185612056565b8181036060830152612ed18184612e57565b905095945050505050565b600081519050612eeb81611dea565b92915050565b600060208284031215612f0757612f06611db4565b5b6000612f1584828501612edc565b91505092915050565b7f4552433732313a206d696e7420746f20746865207a65726f2061646472657373600082015250565b6000612f54602083611e84565b9150612f5f82612f1e565b602082019050919050565b60006020820190508181036000830152612f8381612f47565b9050919050565b7f4552433732313a20746f6b656e20616c7265616479206d696e74656400000000600082015250565b6000612fc0601c83611e84565b9150612fcb82612f8a565b602082019050919050565b60006020820190508181036000830152612fef81612fb3565b905091905056fea264697066735822122092ec4c88d3a761abbe6a44683f5502a94f31709253ac13cf894e06973395db5464736f6c63430008110033",
  "linkReferences": {},
  "deployedLinkReferences": {}
}